{
  "_format": "hh-sol-artifact-1",
  "contractName": "TheCensorshipGame",
  "sourceName": "contracts/TheCensorshipGame.sol",
  "abi": [
    {
      "inputs": [],
      "stateMutability": "payable",
      "type": "constructor"
    },
    {
      "anonymous": false,
      "inputs": [
        {
          "indexed": false,
          "internalType": "uint256",
          "name": "round",
          "type": "uint256"
        }
      ],
      "name": "EndRound",
      "type": "event"
    },
    {
      "anonymous": false,
      "inputs": [
        {
          "indexed": false,
          "internalType": "address",
          "name": "winner",
          "type": "address"
        },
        {
          "indexed": false,
          "internalType": "uint256",
          "name": "winningTeam",
          "type": "uint256"
        }
      ],
      "name": "GameOver",
      "type": "event"
    },
    {
      "anonymous": false,
      "inputs": [
        {
          "indexed": false,
          "internalType": "uint256",
          "name": "startTime",
          "type": "uint256"
        },
        {
          "indexed": false,
          "internalType": "bytes32",
          "name": "random",
          "type": "bytes32"
        }
      ],
      "name": "GameStarted",
      "type": "event"
    },
    {
      "anonymous": false,
      "inputs": [
        {
          "indexed": true,
          "internalType": "address",
          "name": "previousOwner",
          "type": "address"
        },
        {
          "indexed": true,
          "internalType": "address",
          "name": "newOwner",
          "type": "address"
        }
      ],
      "name": "OwnershipTransferred",
      "type": "event"
    },
    {
      "anonymous": false,
      "inputs": [
        {
          "indexed": false,
          "internalType": "address",
          "name": "player",
          "type": "address"
        }
      ],
      "name": "PlayerFlipped",
      "type": "event"
    },
    {
      "anonymous": false,
      "inputs": [
        {
          "indexed": false,
          "internalType": "address",
          "name": "player",
          "type": "address"
        },
        {
          "indexed": false,
          "internalType": "enum TheCensorshipGame.TEAM",
          "name": "team",
          "type": "uint8"
        }
      ],
      "name": "PlayerRevealed",
      "type": "event"
    },
    {
      "inputs": [],
      "name": "PRIZE_POOL",
      "outputs": [
        {
          "internalType": "uint256",
          "name": "",
          "type": "uint256"
        }
      ],
      "stateMutability": "view",
      "type": "function"
    },
    {
      "inputs": [],
      "name": "blueTeamCount",
      "outputs": [
        {
          "internalType": "uint256",
          "name": "",
          "type": "uint256"
        }
      ],
      "stateMutability": "view",
      "type": "function"
    },
    {
      "inputs": [],
      "name": "claimWinnings",
      "outputs": [],
      "stateMutability": "nonpayable",
      "type": "function"
    },
    {
      "inputs": [],
      "name": "cutOffAddress",
      "outputs": [
        {
          "internalType": "address",
          "name": "",
          "type": "address"
        }
      ],
      "stateMutability": "view",
      "type": "function"
    },
    {
      "inputs": [],
      "name": "cutOffPoint",
      "outputs": [
        {
          "internalType": "uint256",
          "name": "",
          "type": "uint256"
        }
      ],
      "stateMutability": "view",
      "type": "function"
    },
    {
      "inputs": [],
      "name": "didVote",
      "outputs": [
        {
          "internalType": "bool",
          "name": "",
          "type": "bool"
        }
      ],
      "stateMutability": "view",
      "type": "function"
    },
    {
      "inputs": [],
      "name": "endRound",
      "outputs": [],
      "stateMutability": "nonpayable",
      "type": "function"
    },
    {
      "inputs": [],
      "name": "gameStart",
      "outputs": [
        {
          "internalType": "uint256",
          "name": "",
          "type": "uint256"
        }
      ],
      "stateMutability": "view",
      "type": "function"
    },
    {
      "inputs": [
        {
          "internalType": "bytes32",
          "name": "seed",
          "type": "bytes32"
        }
      ],
      "name": "getMyColor",
      "outputs": [
        {
          "internalType": "uint256",
          "name": "",
          "type": "uint256"
        }
      ],
      "stateMutability": "view",
      "type": "function"
    },
    {
      "inputs": [
        {
          "internalType": "bytes32",
          "name": "seed",
          "type": "bytes32"
        }
      ],
      "name": "getStartingTeam",
      "outputs": [
        {
          "internalType": "uint256",
          "name": "",
          "type": "uint256"
        }
      ],
      "stateMutability": "view",
      "type": "function"
    },
    {
      "inputs": [
        {
          "internalType": "bytes32",
          "name": "commitment",
          "type": "bytes32"
        },
        {
          "internalType": "string",
          "name": "name",
          "type": "string"
        }
      ],
      "name": "joinGame",
      "outputs": [],
      "stateMutability": "nonpayable",
      "type": "function"
    },
    {
      "inputs": [
        {
          "internalType": "uint256",
          "name": "",
          "type": "uint256"
        }
      ],
      "name": "names",
      "outputs": [
        {
          "internalType": "string",
          "name": "",
          "type": "string"
        }
      ],
      "stateMutability": "view",
      "type": "function"
    },
    {
      "inputs": [],
      "name": "namesList",
      "outputs": [
        {
          "internalType": "string[]",
          "name": "",
          "type": "string[]"
        }
      ],
      "stateMutability": "view",
      "type": "function"
    },
    {
      "inputs": [],
      "name": "owner",
      "outputs": [
        {
          "internalType": "address",
          "name": "",
          "type": "address"
        }
      ],
      "stateMutability": "view",
      "type": "function"
    },
    {
      "inputs": [
        {
          "internalType": "address",
          "name": "",
          "type": "address"
        }
      ],
      "name": "playerDetails",
      "outputs": [
        {
          "internalType": "bytes32",
          "name": "commitment",
          "type": "bytes32"
        },
        {
          "internalType": "uint64",
          "name": "didVote",
          "type": "uint64"
        },
        {
          "internalType": "uint64",
          "name": "didFlip",
          "type": "uint64"
        },
        {
          "internalType": "uint64",
          "name": "revealedRole",
          "type": "uint64"
        },
        {
          "internalType": "string",
          "name": "name",
          "type": "string"
        },
        {
          "internalType": "bool",
          "name": "withdrew",
          "type": "bool"
        }
      ],
      "stateMutability": "view",
      "type": "function"
    },
    {
      "inputs": [
        {
          "internalType": "uint256",
          "name": "",
          "type": "uint256"
        }
      ],
      "name": "players",
      "outputs": [
        {
          "internalType": "address",
          "name": "",
          "type": "address"
        }
      ],
      "stateMutability": "view",
      "type": "function"
    },
    {
      "inputs": [],
      "name": "playersList",
      "outputs": [
        {
          "internalType": "address[]",
          "name": "",
          "type": "address[]"
        }
      ],
      "stateMutability": "view",
      "type": "function"
    },
    {
      "inputs": [],
      "name": "publicSeed",
      "outputs": [
        {
          "internalType": "bytes32",
          "name": "",
          "type": "bytes32"
        }
      ],
      "stateMutability": "view",
      "type": "function"
    },
    {
      "inputs": [],
      "name": "recover",
      "outputs": [],
      "stateMutability": "nonpayable",
      "type": "function"
    },
    {
      "inputs": [],
      "name": "redTeamCount",
      "outputs": [
        {
          "internalType": "uint256",
          "name": "",
          "type": "uint256"
        }
      ],
      "stateMutability": "view",
      "type": "function"
    },
    {
      "inputs": [],
      "name": "renounceOwnership",
      "outputs": [],
      "stateMutability": "nonpayable",
      "type": "function"
    },
    {
      "inputs": [
        {
          "internalType": "bytes32",
          "name": "seed",
          "type": "bytes32"
        },
        {
          "internalType": "bytes32",
          "name": "nonce",
          "type": "bytes32"
        }
      ],
      "name": "reveal",
      "outputs": [],
      "stateMutability": "nonpayable",
      "type": "function"
    },
    {
      "inputs": [],
      "name": "round",
      "outputs": [
        {
          "internalType": "uint256",
          "name": "",
          "type": "uint256"
        }
      ],
      "stateMutability": "view",
      "type": "function"
    },
    {
      "inputs": [],
      "name": "roundTimer",
      "outputs": [
        {
          "internalType": "uint256",
          "name": "",
          "type": "uint256"
        }
      ],
      "stateMutability": "view",
      "type": "function"
    },
    {
      "inputs": [],
      "name": "roundVoteCount",
      "outputs": [
        {
          "internalType": "uint256",
          "name": "",
          "type": "uint256"
        }
      ],
      "stateMutability": "view",
      "type": "function"
    },
    {
      "inputs": [
        {
          "internalType": "address",
          "name": "",
          "type": "address"
        }
      ],
      "name": "scoreList",
      "outputs": [
        {
          "internalType": "address",
          "name": "prev",
          "type": "address"
        },
        {
          "internalType": "uint256",
          "name": "score",
          "type": "uint256"
        },
        {
          "internalType": "address",
          "name": "next",
          "type": "address"
        }
      ],
      "stateMutability": "view",
      "type": "function"
    },
    {
      "inputs": [],
      "name": "scoreListGuard",
      "outputs": [
        {
          "internalType": "address",
          "name": "",
          "type": "address"
        }
      ],
      "stateMutability": "view",
      "type": "function"
    },
    {
      "inputs": [],
      "name": "scoreListLength",
      "outputs": [
        {
          "internalType": "uint256",
          "name": "",
          "type": "uint256"
        }
      ],
      "stateMutability": "view",
      "type": "function"
    },
    {
      "inputs": [],
      "name": "scoreListTail",
      "outputs": [
        {
          "internalType": "address",
          "name": "",
          "type": "address"
        }
      ],
      "stateMutability": "view",
      "type": "function"
    },
    {
      "inputs": [
        {
          "internalType": "bytes32",
          "name": "random",
          "type": "bytes32"
        }
      ],
      "name": "startGame",
      "outputs": [],
      "stateMutability": "nonpayable",
      "type": "function"
    },
    {
      "inputs": [],
      "name": "stillAlive",
      "outputs": [
        {
          "internalType": "bool",
          "name": "",
          "type": "bool"
        }
      ],
      "stateMutability": "view",
      "type": "function"
    },
    {
      "inputs": [
        {
          "internalType": "address",
          "name": "newOwner",
          "type": "address"
        }
      ],
      "name": "transferOwnership",
      "outputs": [],
      "stateMutability": "nonpayable",
      "type": "function"
    },
    {
      "inputs": [
        {
          "internalType": "address[]",
          "name": "saved",
          "type": "address[]"
        },
        {
          "internalType": "uint256[]",
          "name": "weights",
          "type": "uint256[]"
        },
        {
          "internalType": "bool",
          "name": "flip",
          "type": "bool"
        }
      ],
      "name": "voteToSave",
      "outputs": [],
      "stateMutability": "nonpayable",
      "type": "function"
    }
  ],
  "bytecode": "0x60806040523480156200001157600080fd5b506040805180820182526008815267151a19541a5e195b60c21b6020808301918252835180850190945260028452610a0b60f31b9084015281519192916200005c91600091620000eb565b50805162000072906001906020840190620000eb565b5050506200008f620000896200009560201b60201c565b62000099565b620001cd565b3390565b600680546001600160a01b038381166001600160a01b0319831681179093556040519116919082907f8be0079c531659141344cd1fd0a4f28419497f9722a3daafe3b4186f6b6457e090600090a35050565b828054620000f99062000191565b90600052602060002090601f0160209004810192826200011d576000855562000168565b82601f106200013857805160ff191683800117855562000168565b8280016001018555821562000168579182015b82811115620001685782518255916020019190600101906200014b565b50620001769291506200017a565b5090565b5b808211156200017657600081556001016200017b565b600181811c90821680620001a657607f821691505b602082108103620001c757634e487b7160e01b600052602260045260246000fd5b50919050565b6122dc80620001dd6000396000f3fe6080604052600436106101ac5760003560e01c8063715018a6116100ec578063ce79aba51161008a578063e985e9c511610064578063e985e9c5146104cf578063f2e40dbb14610518578063f2fde38b14610538578063f81fe38d1461055857600080fd5b8063ce79aba51461043f578063d56874de14610452578063e8315742146104b957600080fd5b806395d89b41116100c657806395d89b41146103ca578063a22cb465146103df578063b88d4fde146103ff578063c87b56dd1461041f57600080fd5b8063715018a61461037c5780637ff9b596146103915780638da5cb5b146103ac57600080fd5b806323b872dd116101595780635e32498e116101335780635e32498e146103075780635fd8c710146103275780636352211e1461033c57806370a082311461035c57600080fd5b806323b872dd1461029a57806342842e0e146102ba578063550780ba146102da57600080fd5b8063095ea7b31161018a578063095ea7b31461024057806318160ddd1461026257806319a273381461028557600080fd5b806301ffc9a7146101b157806306fdde03146101e6578063081812fc14610208575b600080fd5b3480156101bd57600080fd5b506101d16101cc366004611ba8565b610585565b60405190151581526020015b60405180910390f35b3480156101f257600080fd5b506101fb6105d7565b6040516101dd9190611c24565b34801561021457600080fd5b50610228610223366004611c37565b610669565b6040516001600160a01b0390911681526020016101dd565b34801561024c57600080fd5b5061026061025b366004611c6c565b610703565b005b34801561026e57600080fd5b50610277610818565b6040519081526020016101dd565b34801561029157600080fd5b50610277603c81565b3480156102a657600080fd5b506102606102b5366004611c96565b610828565b3480156102c657600080fd5b506102606102d5366004611c96565b6108a3565b3480156102e657600080fd5b506102776102f5366004611c37565b60096020526000908152604090205481565b34801561031357600080fd5b506101d1610322366004611c37565b6108be565b34801561033357600080fd5b506102606108e3565b34801561034857600080fd5b50610228610357366004611c37565b6109c4565b34801561036857600080fd5b50610277610377366004611cd2565b610a3b565b34801561038857600080fd5b50610260610ac2565b34801561039d57600080fd5b5061027766038d7ea4c6800081565b3480156103b857600080fd5b506006546001600160a01b0316610228565b3480156103d657600080fd5b506101fb610b28565b3480156103eb57600080fd5b506102606103fa366004611ced565b610b37565b34801561040b57600080fd5b5061026061041a366004611d70565b610b46565b34801561042b57600080fd5b506101fb61043a366004611c37565b610bc8565b61026061044d366004611e41565b610d7e565b34801561045e57600080fd5b5061049561046d366004611c37565b600a6020526000908152604090205460ff808216916101008104821691620100009091041683565b6040805160ff948516815292841660208401529216918101919091526060016101dd565b3480156104c557600080fd5b5061027761271081565b3480156104db57600080fd5b506101d16104ea366004611ecd565b6001600160a01b03918216600090815260056020908152604080832093909416825291909152205460ff1690565b34801561052457600080fd5b50610277610533366004611c37565b6110dd565b34801561054457600080fd5b50610260610553366004611cd2565b61110a565b34801561056457600080fd5b50610277610573366004611c37565b60086020526000908152604090205481565b60006001600160e01b031982166380ac58cd60e01b14806105b657506001600160e01b03198216635b5e139f60e01b145b806105d157506301ffc9a760e01b6001600160e01b03198316145b92915050565b6060600080546105e690611f00565b80601f016020809104026020016040519081016040528092919081815260200182805461061290611f00565b801561065f5780601f106106345761010080835404028352916020019161065f565b820191906000526020600020905b81548152906001019060200180831161064257829003601f168201915b5050505050905090565b6000818152600260205260408120546001600160a01b03166106e75760405162461bcd60e51b815260206004820152602c60248201527f4552433732313a20617070726f76656420717565727920666f72206e6f6e657860448201526b34b9ba32b73a103a37b5b2b760a11b60648201526084015b60405180910390fd5b506000908152600460205260409020546001600160a01b031690565b600061070e826109c4565b9050806001600160a01b0316836001600160a01b03160361077b5760405162461bcd60e51b815260206004820152602160248201527f4552433732313a20617070726f76616c20746f2063757272656e74206f776e656044820152603960f91b60648201526084016106de565b336001600160a01b0382161480610797575061079781336104ea565b6108095760405162461bcd60e51b815260206004820152603860248201527f4552433732313a20617070726f76652063616c6c6572206973206e6f74206f7760448201527f6e6572206e6f7220617070726f76656420666f7220616c6c000000000000000060648201526084016106de565b61081383836111d2565b505050565b600061082360075490565b905090565b6108323382611240565b6108985760405162461bcd60e51b815260206004820152603160248201527f4552433732313a207472616e736665722063616c6c6572206973206e6f74206f6044820152701ddb995c881b9bdc88185c1c1c9bdd9959607a1b60648201526084016106de565b610813838383611337565b61081383838360405180602001604052806000815250610b46565b60008181526008602052604081205442906108db90603c90611f50565b111592915050565b6006546001600160a01b0316331461093d5760405162461bcd60e51b815260206004820181905260248201527f4f776e61626c653a2063616c6c6572206973206e6f7420746865206f776e657260448201526064016106de565b604051600090339047908381818185875af1925050503d806000811461097f576040519150601f19603f3d011682016040523d82523d6000602084013e610984565b606091505b50509050806109c15760405162461bcd60e51b81526020600482015260096024820152681d1e0819985a5b195960ba1b60448201526064016106de565b50565b6000818152600260205260408120546001600160a01b0316806105d15760405162461bcd60e51b815260206004820152602960248201527f4552433732313a206f776e657220717565727920666f72206e6f6e657869737460448201526832b73a103a37b5b2b760b91b60648201526084016106de565b60006001600160a01b038216610aa65760405162461bcd60e51b815260206004820152602a60248201527f4552433732313a2062616c616e636520717565727920666f7220746865207a65604482015269726f206164647265737360b01b60648201526084016106de565b506001600160a01b031660009081526003602052604090205490565b6006546001600160a01b03163314610b1c5760405162461bcd60e51b815260206004820181905260248201527f4f776e61626c653a2063616c6c6572206973206e6f7420746865206f776e657260448201526064016106de565b610b2660006114d3565b565b6060600180546105e690611f00565b610b42338383611525565b5050565b610b503383611240565b610bb65760405162461bcd60e51b815260206004820152603160248201527f4552433732313a207472616e736665722063616c6c6572206973206e6f74206f6044820152701ddb995c881b9bdc88185c1c1c9bdd9959607a1b60648201526084016106de565b610bc2848484846115f3565b50505050565b6060610bd2611b6b565b6040518060800160405280604f8152602001612258604f913981526000838152600a6020526040902054610c089060ff16611671565b60208281019190915260408051808201825260018152600b60fa1b81840152818401526000858152600a909252902054610c4990610100900460ff16611671565b606082015260408051808201825260018152600b60fa1b60208083019190915260808401919091526000858152600a9091522054610c8f9062010000900460ff16611671565b60a08201908152604080518082018252601b81527f292220643d224d3020306831223e3c2f706174683e3c2f7376673e000000000060208083019190915260c08501829052845181860151848701516060880151608089015197519651600098610d059895979496939592949093909101611f7e565b60405160208183030381529060405290506000610d52610d2486611671565b610d2d8461178a565b604051602001610d3e929190612010565b60405160208183030381529060405261178a565b905080604051602001610d6591906120ec565b60408051601f1981840301815291905295945050505050565b610d87826110dd565b341015610dd65760405162461bcd60e51b815260206004820152601160248201527f56616c75652062656c6f7720707269636500000000000000000000000000000060448201526064016106de565b610ddf826108be565b610e2b5760405162461bcd60e51b815260206004820152601160248201527f707572636861736520746f6f20736f6f6e00000000000000000000000000000060448201526064016106de565b612710821115610e6d5760405162461bcd60e51b815260206004820152600d60248201526c1d5b9adb9bdddb88141a5e195b609a1b60448201526064016106de565b6000828152600960205260408120549003610f4957612710610e8e60075490565b10610ec85760405162461bcd60e51b815260206004820152600a6024820152691b585e081b5a5b9d195960b21b60448201526064016106de565b610ed6600780546001019055565b6040805160008152336020808301919091523482840152835160ff90811660608401529084015181166080830152838301511660a082015290517f04ee84cede5a924693289e0f4a97abe1391aec0be4515dd93689da6d185d713b9181900360c00190a1610f4433836118dd565b611061565b6000610f54836109c4565b604080516001600160a01b0383168152336020808301919091523482840152855160ff90811660608401529086015181166080830152858301511660a082015290519192507f04ee84cede5a924693289e0f4a97abe1391aec0be4515dd93689da6d185d713b919081900360c00190a1610fcf813385611337565b6000816001600160a01b03163460405160006040518083038185875af1925050503d806000811461101c576040519150601f19603f3d011682016040523d82523d6000602084013e611021565b606091505b505090508061105e5760405162461bcd60e51b81526020600482015260096024820152681d1e0819985a5b195960ba1b60448201526064016106de565b50505b6000828152600a6020908152604080832084518154848701518488015160ff908116620100000262ff0000199282166101000261ffff199094169190941617919091171617905560099091529020546110bb906001611f50565b6000928352600960209081526040808520929092556008905290912042905550565b60008181526009602052604081205466038d7ea4c6800090611100906001611f50565b6105d19190612131565b6006546001600160a01b031633146111645760405162461bcd60e51b815260206004820181905260248201527f4f776e61626c653a2063616c6c6572206973206e6f7420746865206f776e657260448201526064016106de565b6001600160a01b0381166111c95760405162461bcd60e51b815260206004820152602660248201527f4f776e61626c653a206e6577206f776e657220697320746865207a65726f206160448201526564647265737360d01b60648201526084016106de565b6109c1816114d3565b600081815260046020526040902080546001600160a01b0319166001600160a01b0384169081179091558190611207826109c4565b6001600160a01b03167f8c5be1e5ebec7d5bd14f71427d1e84f3dd0314c0f7b2291e5b200ac8c7c3b92560405160405180910390a45050565b6000818152600260205260408120546001600160a01b03166112b95760405162461bcd60e51b815260206004820152602c60248201527f4552433732313a206f70657261746f7220717565727920666f72206e6f6e657860448201526b34b9ba32b73a103a37b5b2b760a11b60648201526084016106de565b60006112c4836109c4565b9050806001600160a01b0316846001600160a01b031614806112ff5750836001600160a01b03166112f484610669565b6001600160a01b0316145b8061132f57506001600160a01b0380821660009081526005602090815260408083209388168352929052205460ff165b949350505050565b826001600160a01b031661134a826109c4565b6001600160a01b0316146113ae5760405162461bcd60e51b815260206004820152602560248201527f4552433732313a207472616e736665722066726f6d20696e636f72726563742060448201526437bbb732b960d91b60648201526084016106de565b6001600160a01b0382166114105760405162461bcd60e51b8152602060048201526024808201527f4552433732313a207472616e7366657220746f20746865207a65726f206164646044820152637265737360e01b60648201526084016106de565b61141b6000826111d2565b6001600160a01b0383166000908152600360205260408120805460019290611444908490612150565b90915550506001600160a01b0382166000908152600360205260408120805460019290611472908490611f50565b909155505060008181526002602052604080822080546001600160a01b0319166001600160a01b0386811691821790925591518493918716917fddf252ad1be2c89b69c2b068fc378daa952ba7f163c4a11628f55a4df523b3ef91a4505050565b600680546001600160a01b038381166001600160a01b0319831681179093556040519116919082907f8be0079c531659141344cd1fd0a4f28419497f9722a3daafe3b4186f6b6457e090600090a35050565b816001600160a01b0316836001600160a01b0316036115865760405162461bcd60e51b815260206004820152601960248201527f4552433732313a20617070726f766520746f2063616c6c65720000000000000060448201526064016106de565b6001600160a01b03838116600081815260056020908152604080832094871680845294825291829020805460ff191686151590811790915591519182527f17307eab39ab6107e8899845ad3d59bd9653f200f220920489ca2b5937696c31910160405180910390a3505050565b6115fe848484611337565b61160a84848484611a1f565b610bc25760405162461bcd60e51b815260206004820152603260248201527f4552433732313a207472616e7366657220746f206e6f6e20455243373231526560448201527131b2b4bb32b91034b6b83632b6b2b73a32b960711b60648201526084016106de565b6060816000036116985750506040805180820190915260018152600360fc1b602082015290565b8160005b81156116c257806116ac81612167565b91506116bb9050600a83612196565b915061169c565b60008167ffffffffffffffff8111156116dd576116dd611d29565b6040519080825280601f01601f191660200182016040528015611707576020820181803683370190505b5090505b841561132f5761171c600183612150565b9150611729600a866121aa565b611734906030611f50565b60f81b81838151811061174957611749611f68565b60200101907effffffffffffffffffffffffffffffffffffffffffffffffffffffffffffff1916908160001a905350611783600a86612196565b945061170b565b606081516000036117a957505060408051602081019091526000815290565b600060405180606001604052806040815260200161221860409139905060006003845160026117d89190611f50565b6117e29190612196565b6117ed906004612131565b67ffffffffffffffff81111561180557611805611d29565b6040519080825280601f01601f19166020018201604052801561182f576020820181803683370190505b509050600182016020820185865187015b8082101561189b576003820191508151603f8160121c168501518453600184019350603f81600c1c168501518453600184019350603f8160061c168501518453600184019350603f8116850151845350600183019250611840565b50506003865106600181146118b757600281146118ca576118d2565b603d6001830353603d60028303536118d2565b603d60018303535b509195945050505050565b6001600160a01b0382166119335760405162461bcd60e51b815260206004820181905260248201527f4552433732313a206d696e7420746f20746865207a65726f206164647265737360448201526064016106de565b6000818152600260205260409020546001600160a01b0316156119985760405162461bcd60e51b815260206004820152601c60248201527f4552433732313a20746f6b656e20616c7265616479206d696e7465640000000060448201526064016106de565b6001600160a01b03821660009081526003602052604081208054600192906119c1908490611f50565b909155505060008181526002602052604080822080546001600160a01b0319166001600160a01b03861690811790915590518392907fddf252ad1be2c89b69c2b068fc378daa952ba7f163c4a11628f55a4df523b3ef908290a45050565b60006001600160a01b0384163b15611b6057604051630a85bd0160e11b81526001600160a01b0385169063150b7a0290611a639033908990889088906004016121be565b6020604051808303816000875af1925050508015611a9e575060408051601f3d908101601f19168201909252611a9b918101906121fa565b60015b611b46573d808015611acc576040519150601f19603f3d011682016040523d82523d6000602084013e611ad1565b606091505b508051600003611b3e5760405162461bcd60e51b815260206004820152603260248201527f4552433732313a207472616e7366657220746f206e6f6e20455243373231526560448201527131b2b4bb32b91034b6b83632b6b2b73a32b960711b60648201526084016106de565b805181602001fd5b6001600160e01b031916630a85bd0160e11b14905061132f565b506001949350505050565b6040518060e001604052806007905b6060815260200190600190039081611b7a5790505090565b6001600160e01b0319811681146109c157600080fd5b600060208284031215611bba57600080fd5b8135611bc581611b92565b9392505050565b60005b83811015611be7578181015183820152602001611bcf565b83811115610bc25750506000910152565b60008151808452611c10816020860160208601611bcc565b601f01601f19169290920160200192915050565b602081526000611bc56020830184611bf8565b600060208284031215611c4957600080fd5b5035919050565b80356001600160a01b0381168114611c6757600080fd5b919050565b60008060408385031215611c7f57600080fd5b611c8883611c50565b946020939093013593505050565b600080600060608486031215611cab57600080fd5b611cb484611c50565b9250611cc260208501611c50565b9150604084013590509250925092565b600060208284031215611ce457600080fd5b611bc582611c50565b60008060408385031215611d0057600080fd5b611d0983611c50565b915060208301358015158114611d1e57600080fd5b809150509250929050565b634e487b7160e01b600052604160045260246000fd5b604051601f8201601f1916810167ffffffffffffffff81118282101715611d6857611d68611d29565b604052919050565b60008060008060808587031215611d8657600080fd5b611d8f85611c50565b93506020611d9e818701611c50565b935060408601359250606086013567ffffffffffffffff80821115611dc257600080fd5b818801915088601f830112611dd657600080fd5b813581811115611de857611de8611d29565b611dfa601f8201601f19168501611d3f565b91508082528984828501011115611e1057600080fd5b808484018584013760008482840101525080935050505092959194509250565b803560ff81168114611c6757600080fd5b6000808284036080811215611e5557600080fd5b833592506060601f1982011215611e6b57600080fd5b506040516060810181811067ffffffffffffffff82111715611e8f57611e8f611d29565b604052611e9e60208501611e30565b8152611eac60408501611e30565b6020820152611ebd60608501611e30565b6040820152809150509250929050565b60008060408385031215611ee057600080fd5b611ee983611c50565b9150611ef760208401611c50565b90509250929050565b600181811c90821680611f1457607f821691505b602082108103611f3457634e487b7160e01b600052602260045260246000fd5b50919050565b634e487b7160e01b600052601160045260246000fd5b60008219821115611f6357611f63611f3a565b500190565b634e487b7160e01b600052603260045260246000fd5b600088516020611f918285838e01611bcc565b895191840191611fa48184848e01611bcc565b8951920191611fb68184848d01611bcc565b8851920191611fc88184848c01611bcc565b8751920191611fda8184848b01611bcc565b8651920191611fec8184848a01611bcc565b8551920191611ffe8184848901611bcc565b919091019a9950505050505050505050565b7f7b226e616d65223a20225050202300000000000000000000000000000000000081526000835161204881600e850160208801611bcc565b7f222c20226465736372697074696f6e223a2022546865206265737420706c6163600e918401918201527f6520746f20707572636861736520796f757220506978656c2e222c2022696d61602e8201527f6765223a2022646174613a696d6167652f7376672b786d6c3b6261736536342c604e82015283516120d181606e840160208801611bcc565b61227d60f01b606e9290910191820152607001949350505050565b7f646174613a6170706c69636174696f6e2f6a736f6e3b6261736536342c00000081526000825161212481601d850160208701611bcc565b91909101601d0192915050565b600081600019048311821515161561214b5761214b611f3a565b500290565b60008282101561216257612162611f3a565b500390565b60006001820161217957612179611f3a565b5060010190565b634e487b7160e01b600052601260045260246000fd5b6000826121a5576121a5612180565b500490565b6000826121b9576121b9612180565b500690565b60006001600160a01b038087168352808616602084015250836040830152608060608301526121f06080830184611bf8565b9695505050505050565b60006020828403121561220c57600080fd5b8151611bc581611b9256fe4142434445464748494a4b4c4d4e4f505152535455565758595a6162636465666768696a6b6c6d6e6f707172737475767778797a303132333435363738392b2f3c73766720786d6c6e733d22687474703a2f2f7777772e77332e6f72672f323030302f737667222076696577426f783d2230202d302e3520312031223e3c70617468207374726f6b653d2272676228a2646970667358221220116023e240a1cc589a503e93951e0855fc9248e7c76937d57bca855bcc5d389a64736f6c634300080d0033",
  "linkReferences": {},
  "deployedLinkReferences": {}
}